:100000000C943E000C947F010C945B000C945B00FC
:100010000C945B000C945B000C945B000C945B00F4
:100020000C945B000C945B000C945B000C945B00E4
:100030000C945B000C945B000C945B000C945B00D4
:100040000C945B000C945B000C945B000C945B00C4
:100050000C945B000C945B000C945B000C945B00B4
:100060000C94BB000C945B000C945B000C945B0044
:100070000C945B000C945B000C945B0011241FBE7D
:10008000CFEFD0E1DEBFCDBF12E0A0E0B1E0E4E30E
:10009000F9E002C005900D92A032B107D9F712E045
:1000A000A0E2B2E001C01D92AA32B107E1F70E94BE
:1000B00001010C9498040C9400001F93182F8A30AF
:1000C00019F48DE00E945D008091C00085FFFCCF97
:1000D0001093C600212F332727FD3095C9011F91AA
:1000E00008958091C00087FFFCCF8091C60090E00A
:1000F00008951092C5008DE48093C40088E1809338
:10010000C10086E08093C20081E192E090932702D3
:1001100080932602909329028093280283E092E044
:1001200090932502809324020895E4E6F0E0808114
:100130008062808380818860808380818068808302
:100140000895EAE7F0E0808186608083ACE7B0E064
:100150008C91806C8C9380818860808380818068A2
:1001600080830895E9E6F0E080818A6080835A9A6E
:10017000E89A789408951F920F920FB60F92112467
:100180002F933F938F939F93EF93FF93209178004A
:1001900030917900809120029091210201969093F4
:1001A00021028093200280912002909121028054AC
:1001B00080937C00E0912002F0912102EE0FFF1F5E
:1001C000E05EFD4F31832083EAE7F0E080818064C8
:1001D0008083FF91EF919F918F913F912F910F908D
:1001E0000FBE0F901F90189593B7917F982B93BFD8
:1001F00083B7816083BF7894889583B78E7F83BFF0
:1002000008950E94790000D080E091E0EDB7FEB73C
:10021000928381830E94CF0186E391E0EDB7FEB720
:10022000928381830E94CF010F900F900E94A100C2
:1002300000D080E591E0EDB7FEB7928381830E9404
:10024000CF010F900F900E94950000D083E691E0BF
:10025000EDB7FEB7928381830E94CF010F900F907C
:100260000E94B20000D08FEB91E0EDB7FEB7928311
:1002700081830E94CF0188EB9BE00197F1F70F90FB
:100280000F9084E00E94F400FCCF0F931F938091A5
:1002900022029091230200D000D000D0EDB7FEB72B
:1002A00031960FED11E0ADB7BEB712961C930E93C9
:1002B000119713821282958384830E94CF0120912B
:1002C000240230912502EDB7FEB73196ADB7BEB727
:1002D00012961C930E93119781E090E09383828392
:1002E000358324830E94CF018DB79EB706960FB643
:1002F000F8949EBF0FBE8DBF1F910F9108951F925E
:100300000F920FB60F9211242F933F934F935F9349
:100310006F937F938F939F93AF93BF93EF93FF93CD
:10032000E89800D080EF91E0EDB7FEB7928381832B
:100330000E94CF01109221021092200280EC809343
:100340007C0080917A00806880937A000F900F90F3
:1003500003C080E00E94F40080912002909121026D
:100360000297B8F380917A008F7780937A000E9489
:10037000450180E797E10197F1F7E89AFF91EF9146
:10038000BF91AF919F918F917F916F915F914F91AD
:100390003F912F910F900FBE0F901F901895A0E0E6
:1003A000B0E0E5EDF1E00C947104FE013596619149
:1003B00071918091260290912702AF010E94E40181
:1003C0002096E2E00C948D04ABE0B0E0EAEEF1E0C0
:1003D0000C9461043C012B015A01FC011782168226
:1003E000838181FD03C06FEF7FEFC6C19AE0892E44
:1003F0001E010894211C311CF3012381F20123FD0D
:10040000859123FF81912F01882309F4B2C18532A0
:1004100039F423FD859123FF81912F01853229F441
:1004200090E0B3010E94D703E7CF982FFF24EE247A
:100430009924FFE1FF15D0F09B3269F09C3228F43B
:10044000903259F0933291F40EC09D3249F09033BE
:1004500069F441E024C052E0F52A84E0F82A28C07B
:1004600098E0F92A25C0E0E1FE2A22C0F7FC29C065
:10047000892F80538A3070F4F6FE05C0989C902C2A
:100480001124980E15C0E89CE02C1124E80EF0E22F
:10049000FF2A0EC09E3229F4F6FC6BC140E4F42A18
:1004A00007C09C3619F450E8F52A02C0983649F482
:1004B000F20123FD959123FF91912F01992309F0DA
:1004C000B8CF892F8554833018F08052833038F4A8
:1004D00044E050E0A40EB51E5FE359830FC093368D
:1004E00031F0933779F0933509F056C020C0F5010B
:1004F0008081898342E050E0A40EB51E610101E0D5
:1005000010E012C0F501C080D180F6FC03C06FEF8F
:100510007FEF02C0692D70E042E050E0A40EB51EEE
:10052000C6010E94CC038C015FE7F52214C0F501DF
:10053000C080D180F6FC03C06FEF7FEF02C0692D51
:1005400070E042E050E0A40EB51EC6010E94C10357
:100550008C0150E8F52AF3FE07C01AC080E290E053
:10056000B3010E94D703EA948E2D90E00817190773
:10057000A8F30EC0F601F7FC8591F7FE81916F019B
:1005800090E0B3010E94D703E110EA9401501040BB
:100590000115110579F7EAC0943611F0993669F51D
:1005A000F7FE08C0F501208131814281538184E04A
:1005B00090E00AC0F501808191819C01442737FDBC
:1005C0004095542F82E090E0A80EB91E9FE6F922D4
:1005D00057FF09C050954095309521953F4F4F4F9B
:1005E0005F4FE0E8FE2ACA01B901A1012AE030E02C
:1005F0000E940304D82ED21840C0953729F41F2D2D
:100600001F7E2AE030E01DC01F2D197F9F3661F04C
:10061000903720F4983509F0ACC00FC0903739F00E
:10062000983709F0A6C004C028E030E00AC0106185
:1006300014FD146020E130E004C014FD166020E1D8
:1006400032E017FF08C0F5016081718182819381DA
:1006500044E050E008C0F50180819181BC0180E058
:1006600090E042E050E0A40EB51EA1010E940304F8
:10067000D82ED2188FE7F82EF122F6FE0BC05EEFCF
:10068000F522D91438F4F4FE07C0F2FC05C08FEE51
:10069000F82202C01D2D01C0192DF4FE0DC0FE016F
:1006A000ED0DF11D8081803319F499EEF92208C017
:1006B0001F5FF2FE05C003C08F2D867809F01F5F13
:1006C0000F2DF3FC14C0F0FE0FC01E1510F09D2C72
:1006D0000BC09D2C9E0C911A1E2D06C080E290E04E
:1006E000B3010E94D7031F5F1E15C0F304C01E157F
:1006F00010F4E11A01C0EE2404FF0FC080E390E083
:10070000B3010E94D70302FF1DC001FD03C088E7AB
:1007100090E00EC088E590E00BC0802F867891F0C5
:1007200001FF02C08BE201C080E2F7FC8DE290E0A5
:10073000B3010E94D70306C080E390E0B3010E949A
:10074000D7039A94D914C0F3DA94F101ED0DF11D99
:10075000808190E0B3010E94D703DD20A9F706C095
:1007600080E290E0B3010E94D703EA94EE20C1F743
:1007700043CEF30166817781CB012B96E2E10C94A5
:100780007D04FC010590615070400110D8F7809500
:1007900090958E0F9F1F0895FC016150704001904D
:1007A0000110D8F7809590958E0F9F1F08950F9395
:1007B0001F93CF93DF938C01EB018B8181FF1BC0D3
:1007C00082FF0DC02E813F818C819D8128173907C2
:1007D00064F4E881F9810193F983E88306C0E88530
:1007E000F985802F0995892B31F48E819F8101969F
:1007F0009F838E8302C00FEF1FEFC801DF91CF915F
:100800001F910F910895FA01AA27283051F1203144
:1008100081F1E8946F936E7F6E5F7F4F8F4F9F4F94
:10082000AF4FB1E03ED0B4E03CD0670F781F891FD6
:100830009A1FA11D680F791F8A1F911DA11D6A0FA4
:10084000711D811D911DA11D20D009F468943F9157
:100850002AE0269F11243019305D3193DEF6CF0156
:100860000895462F4770405D4193B3E00FD0C9F71C
:10087000F6CF462F4F70405D4A3318F0495D31FD89
:100880004052419302D0A9F7EACFB4E0A6959795DC
:10089000879577956795BA95C9F7009761057105B2
:1008A00008959B01AC010A2E0694579547953795FC
:1008B0002795BA95C9F7620F731F841F951FA01D56
:1008C00008952F923F924F925F926F927F928F92F4
:1008D0009F92AF92BF92CF92DF92EF92FF920F93CF
:1008E0001F93CF93DF93CDB7DEB7CA1BDB0B0FB6D9
:1008F000F894DEBF0FBECDBF09942A883988488896
:100900005F846E847D848C849B84AA84B984C8842B
:10091000DF80EE80FD800C811B81AA81B981CE0F22
:10092000D11D0FB6F894DEBF0FBECDBFED01089507
:04093000F894FFCF69
:100934000A7E7E7E7E7E7E7E7E7E7E7E7E7E7E7E47
:100944007E7E7E7E7E7E7E7E7E7E7E7E7E7E7E7EC3
:100954007E7E7E7E7E7E7E7E7E7E7E7E7E7E7E7EB3
:100964007E7E7E7E7E000A55415254206465627507
:100974006720696E697420636F6D706C65746500BF
:100984000A41444320696E697420636F6D706C651D
:100994007465000A506F77657220736176696E67BB
:1009A40020636F6D706C6574653A0A0974696D65CE
:1009B40072302064697361626C6564200A09746929
:1009C4006D6572312064697361626C6564200A0923
:1009D4007477692064697361626C6564200A0975BF
:1009E40073617274312064697361626C6564000AB6
:1009F400494E54302065787465726E616C20696E5E
:100A040074657275707420656E61626C6564000A49
:100A14006368616E6E656C2025643A202534640039
:100A24000A696E20494E543020696E74657272757D
:100A3400707400000000010000000000007100005C
:100A44000000000002000000005D00000000000043
:00000001FF
