:100000000C943E000C945A050C945B000C945B001D
:100010000C945B000C945B000C945B000C945B00F4
:100020000C945B000C945B000C945B000C945B00E4
:100030000C945B000C945B000C945B000C945B00D4
:100040000C945B000C945B000C945B000C94070810
:100050000C9434070C945B000C945B000C945B00D4
:100060000C94E0020C945B000C945B000C945B001D
:100070000C945B000C945B000C945B0011241FBE7D
:10008000CFEFD0E1DEBFCDBF14E0A0E0B1E0EAE108
:10009000F9E202C005900D92A43BB107D9F715E033
:1000A000A4EBB4E001C01D92A735B107E1F70E94AF
:1000B000DD040C948B140C9400001F93182F8A30CD
:1000C00019F48DE00E945D008091C00085FFFCCF97
:1000D0001093C600212F332727FD3095C9011F91AA
:1000E00008958091C00087FFFCCF8091C60090E00A
:1000F00008951092C5008DE48093C40088E9809330
:10010000C100789486E08093C20087E993E09093E1
:10011000540580935305909356058093550589E8BF
:1001200093E090935205809351050895E4E6F0E042
:10013000808180688083089593B7917F982B93BFC7
:1001400083B7816083BF7894889583B78E7F83BFA0
:100150000895EF92FF920F931F93A0E0B0E0BC01CF
:10016000CD010E941A0E23E333E343E550E40E94DD
:10017000020B20E030E040E85AE30E94020B2CE43E
:1001800036E641E75EE30E94FC0B2CEB34E741E9E5
:1001900051E40E94020B29E23CE54CEE52E40E943D
:1001A000A40A7B018C0120E030E048EC52E40E947C
:1001B000A80C181654F40F2EF0E0EF2EF0E0FF2EEE
:1001C000F8EC0F2FF2E41F2FF02DB701C8011F919B
:1001D0000F91FF90EF9008956F927F928F929F9270
:1001E000AF92BF92CF92DF92EF92FF920F931F9345
:1001F000A0E0B0E0BC01CD010E941A0E23E333E37E
:1002000043E550E40E94020B20E030E040E85AE36E
:100210000E94020B3B014C0120E53DE847E95DE30C
:100220000E94380D181614F080E047C0C401B301D5
:1002300022E03BE247EF5FE30E94D80C882314F0F2
:1002400084E63BC0C401B301A40193010E94020BE8
:100250005B016C01A40193010E94020B25EC30E2CA
:1002600044EC51E40E94020B7B018C01C601B501F4
:1002700020EB32E741E152EC0E94020B9B01AC0102
:10028000C801B7010E94D50A7B018C01C401B301EA
:100290002AEA31E740E052E40E94020B9B01AC01E4
:1002A000C801B7010E94D50A2EED31E746E850E4B7
:1002B0000E94D50A0E942C09862F1F910F91FF9052
:1002C000EF90DF90CF90BF90AF909F908F907F90F6
:1002D0006F900895A0E0B0E0BC01CD010E941A0E1D
:1002E00023E333E343E550E40E94020B20E030E0D7
:1002F00040E85AE30E94020B20E030E048EC52E470
:100300000E94020B20E030E848E853E40E94A40A6F
:100310000E942C09CB010895219829981092800001
:100320001092810010928200109285001092840039
:1003300087B1816487B988B18E7B88B90895A4E8B4
:10034000B0E011961C921E92309AE1E8F0E08081B4
:100350008760808380E395E70197F1F78081887F4C
:10036000808381E090E09093CE048093CD048D91C2
:100370009C9111979093D0048093CF0411961C9276
:100380001E926091CF047091D00480E090E00E94B2
:100390001A0E20E030ED4CE755E40E94FC0B20E003
:1003A00030E048EC52E40E94020B0E942C0970934A
:1003B000D0046093CF04309A8091CF049091D00400
:1003C0000895EF92FF920F931F93A0E0B0E0BC015D
:1003D000CD010E941A0E23E333E343E550E40E946B
:1003E000020B20E030E040E85AE30E94020B7B0160
:1003F0008C012DEC3CEC4CE45EE30E94380D1816A9
:100400000CF0BFC0C801B7012DEC3CEC4CE45EE33E
:100410000E94A80C181664F4C801B7012AE939E94A
:1004200049E95EE30E94380D181614F040EA15C041
:10043000C801B7012AE939E949E95EE30E94A80C3D
:1004400018166CF4C801B7012DEC3CEC4CEC5EE3E3
:100450000E94380D18161CF040EF51E494C0C801FA
:10046000B7012DEC3CEC4CEC5EE30E94A80C181696
:1004700064F4C801B70120E030E040E05FE30E948F
:10048000380D181614F040E279C0C801B70120E019
:1004900030E040E05FE30E94A80C181664F4C80145
:1004A000B7012AE939E949E15FE30E94380D1816DE
:1004B00014F048E463C0C801B7012AE939E949E109
:1004C0005FE30E94A80C181664F4C801B70123E387
:1004D00033E343E35FE30E94380D181614F040E75E
:1004E0004DC0C801B70123E333E343E35FE30E9458
:1004F000A80C181664F4C801B7012DEC3CEC4CE4D0
:100500005FE30E94380D181614F04CE837C0C8019C
:10051000B7012DEC3CEC4CE45FE30E94A80C1816EC
:1005200064F4C801B70126E636E646E65FE30E94BA
:10053000380D181614F040EA21C0C801B70126E6AC
:1005400036E646E65FE30E94A80C181664F4C8017C
:10055000B70120E030E040E85FE30E94380D181654
:1005600014F044EB0BC0C801B70120E030E040E8D4
:100570005FE30E94A80C18161CF448EC52E403C078
:1005800005C040E050E080E090E0BA01AB01BC0162
:10059000CA011F910F91FF90EF900895399A4198E9
:1005A0000895EAE7F0E0808186608083ACE7B0E000
:1005B0008C91806C8C93808188608083789408957E
:1005C0001F920F920FB60F9211242F933F938F9388
:1005D0009F93EF93FF932091780030917900809161
:1005E0000B0590910C05019690930C0580930B05DB
:1005F00080910B0590910C05805480937C00E091D4
:100600000B05F0910C05EE0FFF1FE55FFA4F3183EC
:100610002083EAE7F0E0808180648083FF91EF919E
:100620009F918F913F912F910F900FBE0F901F9030
:1006300018951092CD008DE48093CC0088E18093D2
:10064000C90086E08093CA000895982F8091C80061
:1006500085FFFCCF9093CE000895DF93CF93CDB765
:10066000DEB728970FB6F894DEBF0FBECDBFA22F1E
:100670002983F32F3A83E42F4B83452F5C83362F56
:100680006D83272F7E838F839887582F60E070E0DB
:100690006330710579F16430710554F4613071058E
:1006A000D9F062307105FCF46115710571F044C038
:1006B0006530710569F1653071051CF166307105B1
:1006C00071F167307105C1F531C08091C80085FFB7
:1006D000FCCFA093CE0030C08091C80085FFFCCF36
:1006E000F093CE0029C08091C80085FFFCCFE09335
:1006F000CE0022C08091C80085FFFCCF4093CE0081
:100700001BC08091C80085FFFCCF3093CE0014C081
:100710008091C80085FFFCCF2093CE000DC0809152
:10072000C80085FFFCCF5093CE0006C08091C80062
:1007300085FFFCCF9093CE006F5F7F4F68307105CF
:1007400009F0A6CF28960FB6F894DEBF0FBECDBF36
:10075000CF91DF9108959EE79093C5049FEF90930A
:10076000C60496E09093C7048093C8041092C9040D
:100770006093CA044093CB048FEE8093CC04209105
:10078000C5043091C6044091C7045091C8046091DB
:10079000C9047091CA048091CB049091CC040E944A
:1007A0002D030895AF92BF92CF92DF92EF92FF9206
:1007B0000F931F93469A9AE0899FC0011124AA279C
:1007C00097FDA095BA2FBC01CD010E94680D5B0179
:1007D0006C0120E030E84BE355E40E94020B7B0102
:1007E0008C0120E030E040E85FE30E94080D8823A0
:1007F0001CF461E070E024C0C801B70120E03FEFC5
:100800004FE757E40E94A80C1816B4F4C601B501CE
:1008100020E030E040E251E40E94020B0E942C09EB
:100820008CE291E005C0FC013197F1F76150704016
:1008300061157105C1F707C0C801B7010E942C09F5
:10084000CB010197F1F746981F910F91FF90EF9020
:10085000DF90CF90BF90AF90089582E087B984E099
:1008600087B988E087B9419A429A439A089596B128
:1008700021E030E002C0220F331F8A95E2F7922771
:1008800096B9089586B192E0892786B986B198E035
:10089000892786B986B194E0892786B90895809121
:1008A000D1049091D204089580E484B980EC8CBD89
:1008B000789408958D3739F481E090E09093C404E2
:1008C0008093C3040895882351F48091D6048EBD8B
:1008D00081E090E090934A05809349050895813026
:1008E00051F48091D7048EBD81E090E090930A0589
:1008F000809309050895823051F48091D8048EBD0B
:1009000081E090E09093BE048093BD04089583300D
:1009100051F48091D9048EBD81E090E090934C0514
:1009200080934B050895843051F48091DA048EBD94
:1009300081E090E09093C0048093BF040895A0915B
:100940004905B0914A052091090530910A05E091C9
:10095000BD04F091BE0460914B0570914C0540912F
:10096000BF045091C0048091B6049091B7040197E0
:1009700099F48091C3049091C404019769F42A0FFB
:100980003B1F2E0F3F1F260F371F240F351F25300B
:10099000310511F482E301C084E68EBD08952298EA
:1009A0002A9AE9E6F0E080818F7C808380818A60EA
:1009B00080835A9AE89A789408950E94790000D02A
:1009C00080E091E0EDB7FEB7928381830E94C4116D
:1009D00086E391E0EDB7FEB7928381830E94C41154
:1009E0000F900F900E94D10200D081E591E0EDB709
:1009F000FEB7928381830E94C4110F900F900E94D2
:100A00008C0100D084E691E0EDB7FEB7928381833C
:100A10000E94C411399A41988EE791E0EDB7FEB774
:100A2000928381830E94C4118091640080688093C6
:100A300064008DE991E0EDB7FEB7928381830E9457
:100A4000C41180E484B980EC8CBD789483EC91E08F
:100A5000EDB7FEB7928381830E94C4110F900F906F
:100A60000E94CF0400D086ED91E0EDB7FEB79283EF
:100A700081830E94C41186EE91E0EDB7FEB79283A8
:100A800081830E94C4110F900F900E942D0400D00A
:100A90008CE292E0EDB7FEB7928381830E94C4118D
:100AA00088EB9BE00197F1F70F900F9080E00E9498
:100AB0009C00FCCF1F920F920FB60F9211242F9320
:100AC0003F934F935F936F937F938F939F93AF93D6
:100AD000BF93EF93FF93E89800D081E492E0EDB7E5
:100AE000FEB7928381830E94C411E89A0F900F9001
:100AF000FF91EF91BF91AF919F918F917F916F91F6
:100B00005F914F913F912F910F900FBE0F901F90CB
:100B10001895CF93DF93E091D104F091D204F09334
:100B2000C204E093C1048DB79EB708970FB6F8943E
:100B30009EBF0FBE8DBFADB7BEB7119684E592E0E4
:100B4000CDB7DEB79A8389838081918113969C9378
:100B50008E9312978281938115969C938E9314970E
:100B60008481958117969C938E9316970E94C41149
:100B700091E09093D30482E08093D4049093D504C1
:100B8000E091C104F091C20480818093D604109258
:100B900008058DB79EB708960FB6F8949EBF0FBE96
:100BA0008DBF81E0DF91CF910895319B04C000D0CB
:100BB00080E692E003C000D08AE692E0EDB7FEB78F
:100BC000928381830E94C4110F900F90319A0895EF
:100BD0004F925F926F927F928F929F92AF92BF924D
:100BE000CF92DF92EF92FF920F931F93CF93DF93F9
:100BF0008091BB049091BC04892B41F485E090E086
:100C00000E94BF108093BB049093BC04C0E0D0E06E
:100C100073EA472E72E0572E6CEB662E62E0762E5A
:100C200059ED852E52E0952E45E7A42E42E0B42ED4
:100C30003CE8C32E32E0D32E2EEEE22E22E0F22E3E
:100C4000C23009F45DC0C33030F4CC2359F0C13058
:100C500009F0AAC021C0C33009F46AC0C43009F049
:100C6000A3C081C080910D0590910E050E94A9003E
:100C70000E942C09E091BB04F091BC047183608355
:100C800000D000D0EDB7FEB73196ADB7BEB7129623
:100C9000BC92AE92119780C060910F0570911005C3
:100CA00080E090E00E941A0E23E333E343E550E432
:100CB0000E94020B20E030E040E85AE30E94020B61
:100CC00020E030E048EC52E40E94020B20E030E8E3
:100CD00048E853E40E94A40A0E942C09E091BB0456
:100CE000F091BC047383628300D000D0EDB7FEB7EF
:100CF0003196ADB7BEB71296DC92CE9211974CC02A
:100D000080911105909112050E94EC00E091BB04C6
:100D1000F091BC048483158200D000D0EDB7FEB7FB
:100D20003196ADB7BEB712965C924E92119718C02D
:100D30000091BB041091BC040E949F01F8018683BE
:100D40000A5F1F4FD80111961C9200D000D0EDB75A
:100D5000FEB73196ADB7BEB712967C926E921197E0
:100D6000828313821BC080911305909114050E9409
:100D7000E1010E942C09E091BB04F091BC04718751
:100D8000608700D000D0EDB7FEB73196ADB7BEB7E3
:100D900012969C928E921197738362830E94C41163
:100DA0000F900F900F900F909E012196FE01EE0F75
:100DB000FF1FE55FFA4F8081918100D000D000D005
:100DC000EDB7FEB73196ADB7BEB71296FC92EE9274
:100DD000119722833383958384830E94C411EDB7D6
:100DE000FEB736960FB6F894FEBF0FBEEDBFC53006
:100DF000D10509F025CF8091BB049091BC04DF910F
:100E0000CF911F910F91FF90EF90DF90CF90BF9007
:100E1000AF909F908F907F906F905F904F900895CC
:100E20000E94D50510920C0510920B0580EC809362
:100E30007C0080917A00806880937A0003C080E013
:100E40000E949C0080910B0590910C050497B8F3CB
:100E500080917A008F7780937A0080E797E10197FD
:100E6000F1F70E94E80508951F920F920FB60F92B6
:100E700011242F933F934F935F936F937F938F939F
:100E80009F93AF93BF93CF93DF93EF93FF93209103
:100E9000C60000D000D0EDB7FEB7319681E093E0F8
:100EA000ADB7BEB712969C938E931197228313828F
:100EB0000E94C4110F900F900F900F900E94100786
:100EC000DC0100D000D000D0EDB7FEB731968FE046
:100ED00093E0CDB7DEB79A838983138212828D9116
:100EE0009C91958384830E94C41180E797E10197C8
:100EF000F1F78DB79EB706960FB6F8949EBF0FBE5A
:100F00008DBFFF91EF91DF91CF91BF91AF919F91F5
:100F10008F917F916F915F914F913F912F910F90A2
:100F20000FBE0F901F901895FF920F931F93DF93A2
:100F3000CF93CDB7DEB71B850C85FD842985223084
:100F4000A1F0233024F4213009F05BC006C0233027
:100F500099F0243009F055C049C082E293E00E9424
:100F6000D911812F0E94D2034CC00E941007909388
:100F7000D2048093D10445C0163091F500D000D042
:100F800085E393E0EDB7FEB7928381838091B4044B
:100F90009091B504948383830E94C4118091B4041A
:100FA0009091B5040F900F900F900F90009761F4FF
:100FB00086E0602F4F2D0E94AB0381E090E090937C
:100FC000B5048093B4041DC00197D9F486E0602F66
:100FD0004EE10E94AB031092B5041092B40411C00C
:100FE000812F602F4F2D0E94AB030BC086B192E082
:100FF000892786B986B198E0892786B986B1822784
:1010000086B9CF91DF911F910F91FF9008951F92A4
:101010000F920FB60F9211241F932F933F934F936C
:101020005F936F937F938F939F93AF93BF93EF9350
:10103000FF931EB580918803823571F1843509F0E4
:10104000F0C02EB500D000D0EDB7FEB7319688E4E1
:1010500093E0ADB7BEB712969C938E9311972283FF
:1010600013820E94C4110F900F900F900F901D37A4
:1010700021F01F3709F0D5C007C081E090E09093C0
:10108000B7048093B604CDC01092B7041092B60492
:1010900082E580938803C5C01E3731F08091B90482
:1010A0001F3709F04EC004C081E08093B904B9C075
:1010B000882309F4B6C0EDB7FEB7F6970FB6F894DB
:1010C000FEBF0FBEEDBFADB7BEB71196E3E1F5E0D1
:1010D00086E301900D928150E1F70E9494071092EF
:1010E000B9041092B8041092BA04809148052DB743
:1010F0003EB72A5C3F4F0FB6F8943EBF0FBE2DBFE0
:10110000882309F48EC010924A0510924905109266
:101110000A05109209051092BE041092BD041092A7
:101120004C0510924B051092C0041092BF0410920F
:10113000C4041092C30484E5809388030E94890547
:1011400070C0882309F46DC02091BA04822F8F5F8C
:101150008093BA048330C1F0843034F4813051F08C
:10116000823009F05EC009C08430C9F0853009F0D2
:1011700058C03DC01093130554C01093140500D0FF
:1011800000D083E593E039C01093150580911505D3
:10119000882309F046C084E08093BA0442C080915D
:1011A000B804E82FF0E080911505992787FD909508
:1011B0000197E817F90714F42093BA04ED5EFA4F8B
:1011C000138300D000D083E693E0EDB7FEB792839F
:1011D0008183812F992787FD9095948383830E9433
:1011E000C4118091B8048F5F8093B80416C0109327
:1011F000480500D000D087E793E0ADB7BEB71296A0
:101200009C938E931197812F992787FD9095149623
:101210009C938E9313970E94C4110F900F900F9080
:101220000F908091B6049091B704019719F4812F23
:101230000E945A04FF91EF91BF91AF919F918F91BE
:101240007F916F915F914F913F912F911F910F90DF
:101250000FBE0F901F901895EF92FF920F931F9360
:101260007B018C0120E030E040E05FE40E94D80C7C
:1012700088238CF0C801B70120E030E040E05FE453
:101280000E94A40A0E94C60D9B01AC012050304070
:101290004040504806C0C801B7010E94C60D9B01DE
:1012A000AC01B901CA011F910F91FF90EF90089511
:1012B000A0E0B0E0EEE5F9E00C948810DC012B0131
:1012C000FA019C91923008F439C1EB018881823097
:1012D00008F433C1943069F4843009F02FC11196B9
:1012E0009C9111978981981709F428C1A5EAB3E068
:1012F00025C1843009F421C18230A9F4923009F06B
:101300001DC19A01AD0188E0EA010990AE01E90131
:1013100009929E018150C1F7E201898111969C9149
:101320008923818308C1923009F407C112962D9058
:101330003C901397EB018A819B811496AD90BD90F0
:10134000CD90DC901797EC80FD800E811F8191017C
:10135000281B390BB90137FF04C066277727621BAA
:10136000730B603271050CF061C0121613066CF538
:1013700037014801062E04C09694879477946794A9
:101380000A94D2F721E030E040E050E004C0220FA0
:10139000331F441F551F6A95D2F7215030404040FB
:1013A00050402E213F214023512321153105410575
:1013B000510521F021E030E040E050E079018A0160
:1013C000E628F728082919293CC0232BD1F1260E3D
:1013D000371E35014601062E04C0969487947794F3
:1013E00067940A94D2F721E030E040E050E004C076
:1013F000220F331F441F551F6A95D2F721503040EA
:10140000404050402A213B214C215D2121153105CE
:101410004105510521F021E030E040E050E0590164
:101420006A01A628B728C828D9280BC082159305B9
:101430002CF01C01AA24BB24650103C0EE24FF2468
:10144000870111969C91D20111968C91981709F4FD
:1014500045C0992339F0A80197012A193B094C0985
:101460005D0906C0A60195012E193F09400B510BDD
:1014700057FD08C01182338222822483358346833C
:1014800057831DC081E08183338222828827992778
:10149000DC01821B930BA40BB50B84839583A6837D
:1014A000B7830DC0220F331F441F551F248335837C
:1014B000468357838281938101979383828324811A
:1014C000358146815781DA01C9010197A109B10926
:1014D0008F5F9F4FAF4FBF4328F30BC09183338281
:1014E0002282EA0CFB1C0C1D1D1DE482F582068382
:1014F000178383E08083248135814681578157FF9C
:101500001AC0C901AA2797FDA095BA2F81709070C3
:10151000A070B0705695479537952795822B932BE1
:10152000A42BB52B84839583A683B7838281938173
:10153000019693838283DF0101C0D201CD01CDB733
:10154000DEB7E2E10C94A410A0E2B0E0EAEAFAE02F
:101550000C94941069837A838B839C832D833E83C0
:101560004F835887E9E0EE2EF12CEC0EFD1ECE01E4
:101570000196B7010E94B70F8E010F5E1F4FCE017B
:101580000596B8010E94B70F8A8991E089278A8B56
:10159000C701B801AE01475E5F4F0E9458090E9423
:1015A000E20EA096E6E00C94B010A0E2B0E0EBED05
:1015B000FAE00C94941069837A838B839C832D8347
:1015C0003E834F835887F9E0EF2EF12CEC0EFD1E81
:1015D000CE010196B7010E94B70F8E010F5E1F4F1B
:1015E000CE010596B8010E94B70FC701B801AE0140
:1015F000475E5F4F0E9458090E94E20EA096E6E007
:101600000C94B010A0E2B0E0E8E0FBE00C9488108D
:1016100069837A838B839C832D833E834F83588792
:10162000CE010196BE01675F7F4F0E94B70FCE01CA
:101630000596BE016F5E7F4F0E94B70F998592306D
:1016400088F089898230C8F0943019F4823051F4DE
:1016500004C0843029F4923081F485EA93E0C6C056
:10166000923049F420E09A858A89981321E02A87EC
:10167000CE010996BBC0823049F420E09A858A8960
:10168000981321E02A8BCE014196B0C02D843E8470
:101690004F8458886D887E888F88988CEE24FF242C
:1016A0008701AA24BB24650140E050E060E070E0BF
:1016B000E0E0F0E0C10181709070892BE9F0E60C68
:1016C000F71C081D191D9A01AB012A0D3B1D4C1D6D
:1016D0005D1D80E090E0A0E0B0E0E614F7040805AE
:1016E000190520F481E090E0A0E0B0E0BA01A90182
:1016F000480F591F6A1F7B1FAA0CBB1CCC1CDD1C8A
:1017000097FE08C081E090E0A0E0B0E0A82AB92AE6
:10171000CA2ADB2A3196E032F10549F0660C771CC3
:10172000881C991C5694479437942794C3CFFA8504
:10173000EA892B893C898B859C85280F391F2E5F70
:101740003F4F17C0CA0181709070892B61F01695C8
:101750000795F794E79480E090E0A0E0B0E8E82AED
:10176000F92A0A2B1B2B76956795579547952F5F7E
:101770003F4F77FDE7CF0CC0440F551F661F771F03
:1017800017FD4160EE0CFF1C001F111F215030405F
:10179000403090E0590790E0690790E4790760F3E2
:1017A0002B8F3C8FDB01CA018F779070A070B070D7
:1017B00080349105A105B10561F447FD0AC0E1142B
:1017C000F1040105110529F0405C5F4F6F4F7F4F19
:1017D00040781A8EFE1711F081E08A8F4D8F5E8F50
:1017E0006F8F78A383E0898FCE0149960E94E20E25
:1017F000A096E2E10C94A410A8E1B0E0E2E0FCE0E5
:101800000C94901069837A838B839C832D833E8311
:101810004F835887B9E0EB2EF12CEC0EFD1ECE0164
:101820000196B7010E94B70F8E010F5E1F4FCE01C8
:101830000596B8010E94B70F2985223008F47EC0B2
:101840003989323010F4B8017CC08A859A89892799
:101850008A87243011F0223031F4231709F06EC04A
:1018600065EA73E06EC0343039F41D861E861F862B
:10187000188A1C861B8604C0323021F484E08987D4
:10188000B7015FC02B853C858B899C89281B390B50
:101890003C872B87ED84FE840F851889AD88BE8830
:1018A000CF88D88CEA14FB040C051D0540F4EE0C1F
:1018B000FF1C001F111F215030403C872B8720E068
:1018C00030E040E050E080E090E0A0E0B0E460E094
:1018D00070E0EA14FB040C051D0540F0282B392BA1
:1018E0004A2B5B2BEA18FB080C091D09B695A79536
:1018F00097958795EE0CFF1C001F111F6F5F7F4FA0
:101900006F31710531F7DA01C9018F779070A070DE
:10191000B07080349105A105B10561F427FD0AC0BE
:10192000E114F1040105110529F0205C3F4F4F4FF0
:101930005F4F20782D873E874F87588BBE01675FAA
:101940007F4FCB010E94E20E6896EAE00C94AC1047
:10195000A8E1B0E0EEEAFCE00C94941069837A838D
:101960008B839C832D833E834F83588789E0E82EA9
:10197000F12CEC0EFD1ECE010196B7010E94B70FAF
:101980008E010F5E1F4FCE010596B8010E94B70F62
:101990008985823040F08989823028F0C701B801FA
:1019A0000E942F1001C08FEF6896E6E00C94B010F3
:1019B000A8E1B0E0EEEDFCE00C94941069837A832A
:1019C0008B839C832D833E834F83588789E0E82E49
:1019D000F12CEC0EFD1ECE010196B7010E94B70F4F
:1019E0008E010F5E1F4FCE010596B8010E94B70F02
:1019F0008985823040F08989823028F0C701B8019A
:101A00000E942F1001C08FEF6896E6E00C94B01092
:101A1000A8E1B0E0EEE0FDE00C94941069837A83D5
:101A20008B839C832D833E834F83588789E0E82EE8
:101A3000F12CEC0EFD1ECE010196B7010E94B70FEE
:101A40008E010F5E1F4FCE010596B8010E94B70FA1
:101A50008985823040F08989823028F0C701B80139
:101A60000E942F1001C081E06896E6E00C94B0104F
:101A7000A8E1B0E0EEE3FDE00C94941069837A8372
:101A80008B839C832D833E834F83588789E0E82E88
:101A9000F12CEC0EFD1ECE010196B7010E94B70F8E
:101AA0008E010F5E1F4FCE010596B8010E94B70F41
:101AB0008985823040F08989823028F0C701B801D9
:101AC0000E942F1001C081E06896E6E00C94B010EF
:101AD000A8E0B0E0EEE6FDE00C9491109B01AC01B3
:101AE00083E08983DA01C9018827B7FD83959927A7
:101AF000AA27BB27B82E211531054105510519F438
:101B000082E089833AC08823A9F0203080E038073A
:101B100080E0480780E8580729F460E070E080E042
:101B20009FEC30C0EE24FF248701E21AF30A040B75
:101B3000150B02C079018A018EE1C82ED12CDC82FE
:101B4000CB82ED82FE820F831887C801B7010E9405
:101B5000930E01971816190684F4082E04C0EE0C93
:101B6000FF1C001F111F0A94D2F7ED82FE820F8323
:101B70001887C81AD90ADC82CB82BA82CE010196B4
:101B80000E94E20E2896E9E00C94AD10ACE0B0E0C3
:101B9000ECECFDE00C94981069837A838B839C8332
:101BA000CE010196BE016B5F7F4F0E94B70F8D8102
:101BB000823061F1823050F1843021F48E818823AB
:101BC00051F12EC02F81388537FD20C06E812F3115
:101BD00031051CF06623F9F023C08EE190E0821BF2
:101BE000930B29853A854B855C8504C056954795AE
:101BF000379527958A95D2F76623B1F05095409591
:101C0000309521953F4F4F4F5F4F0EC020E030E0A1
:101C100040E050E009C02FEF3FEF4FEF5FE704C017
:101C200020E030E040E050E8B901CA012C96E2E043
:101C30000C94B410A8E0B0E0E0E2FEE00C94901048
:101C40007B018C01611571058105910519F482E014
:101C5000898360C083E089838EE1C82ED12CDC8229
:101C6000CB82ED82FE820F831887C801B7010E94E4
:101C7000930EFC013197F7FF3BC0222733272E1B21
:101C80003F0B57016801022E04C0D694C794B79445
:101C9000A7940A94D2F740E050E060E070E081E061
:101CA00090E0A0E0B0E004C0880F991FAA1FBB1FFE
:101CB0002A95D2F70197A109B1098E219F21A0236E
:101CC000B1230097A105B10521F041E050E060E0AB
:101CD00070E04A295B296C297D294D835E836F83DF
:101CE00078878EE190E08E1B9F0B9C838B8312C0C4
:101CF000309781F00E2E04C0EE0CFF1C001F111F48
:101D00000A94D2F7ED82FE820F831887CE1ADF0A7B
:101D1000DC82CB821A82CE0101960E94E20E2896C6
:101D2000EAE00C94AC10EF92FF920F931F937B01AB
:101D30008C0180E0E81680E0F80681E0080780E08A
:101D4000180788F48FEFE816F1040105110531F04A
:101D500028F088E090E0A0E0B0E017C080E090E0DC
:101D6000A0E0B0E012C080E0E81680E0F80680E075
:101D7000080781E0180728F088E190E0A0E0B0E0D3
:101D800004C080E190E0A0E0B0E020E230E040E07C
:101D900050E0281B390B4A0B5B0B04C016950795C6
:101DA000F794E7948A95D2F7F701E355FC4F8081C9
:101DB000281B310941095109C9011F910F91FF9059
:101DC000EF900895DF92EF92FF920F931F93FC0123
:101DD000E480F58006811781D1808081823048F4CB
:101DE00080E090E0A0E1B0E0E82AF92A0A2B1B2B62
:101DF000A5C0843009F49FC0823021F4EE24FF2472
:101E0000870105C0E114F1040105110519F4E0E0B2
:101E1000F0E096C0628173819FEF623879070CF021
:101E20005BC022E83FEF261B370B2A3131052CF02F
:101E300020E030E040E050E02AC0B801A701022EC7
:101E400004C076956795579547950A94D2F781E037
:101E500090E0A0E0B0E004C0880F991FAA1FBB1F4C
:101E60002A95D2F70197A109B1098E219F21A023BC
:101E7000B1230097A105B10521F081E090E0A0E039
:101E8000B0E09A01AB01282B392B4A2B5B2BDA01EE
:101E9000C9018F779070A070B07080349105A10552
:101EA000B10539F427FF09C0205C3F4F4F4F5F4F0A
:101EB00004C0215C3F4F4F4F5F4FE0E0F0E0203027
:101EC000A0E03A07A0E04A07A0E45A0710F0E1E0DA
:101ED000F0E079018A0127C06038710564F5FB01E3
:101EE000E158FF4FD801C7018F779070A070B07094
:101EF00080349105A105B10539F4E7FE0DC080E4F9
:101F000090E0A0E0B0E004C08FE390E0A0E0B0E09B
:101F1000E80EF91E0A1F1B1F17FF05C0169507952F
:101F2000F794E794319687E016950795F794E79430
:101F30008A95D1F705C0EE24FF248701EFEFF0E08A
:101F40006E2F679566276795902F9F77D794DD242E
:101F5000D7948E2F8695492F462B582F5D29B70190
:101F6000CA011F910F91FF90EF90DF900895FC013F
:101F7000DB01408151812281622F6F7770E0221F47
:101F80002227221F9381892F880F822B282F30E050
:101F9000991F9927991F11969C9311972115310527
:101FA000A9F5411551056105710511F482E037C0AD
:101FB00082E89FEF13969C938E9312979A01AB0140
:101FC00067E0220F331F441F551F6A95D1F783E046
:101FD0008C930DC0220F331F441F551F12968D91F5
:101FE0009C911397019713969C938E931297203090
:101FF00080E0380780E0480780E4580758F31496DB
:102000002D933D934D935C93179708952F3F310582
:1020100079F4411551056105710519F484E08C933B
:10202000089564FF03C081E08C9312C01C9210C01D
:102030002F57304013963C932E93129783E08C9346
:1020400087E0440F551F661F771F8A95D1F770648C
:1020500014964D935D936D937C93179708951F93FA
:10206000DC01FB019C91923008F447C080818230F2
:1020700008F443C0943051F411961C91843099F5C2
:102080008181682F70E0611B71093FC0843021F0AD
:10209000923031F48230B9F18181882389F12DC0E9
:1020A00011961C9111978230F1F081811817D9F4A3
:1020B00012962D913C9113978281938182179307F9
:1020C00094F028173907BCF014968D919D910D90CE
:1020D000BC91A02D2481358146815781281739076D
:1020E0004A075B0718F4112341F00AC082179307CF
:1020F000A407B50740F4112319F061E070E005C0B2
:102100006FEF7FEF02C060E070E0CB011F91089598
:102110002F923F924F925F926F927F928F929F92F7
:10212000AF92BF92CF92DF92EF92FF920F931F93E5
:10213000CF93DF93CDB7DEB7CA1BDB0B0FB6F89496
:10214000DEBF0FBECDBF09942A88398848885F84D6
:102150006E847D848C849B84AA84B984C884DF8047
:10216000EE80FD800C811B81AA81B981CE0FD11D2B
:102170000FB6F894DEBF0FBECDBFED010895CF932B
:10218000DF93BC018230910510F462E070E0A09111
:102190004F05B0915005ED01E0E0F0E040E050E087
:1021A00021C0888199818617970769F48A819B816C
:1021B000309719F09383828304C0909350058093E5
:1021C0004F05FE0134C06817790738F441155105F1
:1021D00019F08417950708F4AC01FE018A819B81F0
:1021E0009C01E9012097E9F641155105A9F1CA01C1
:1021F000861B970B049708F4BA01E0E0F0E02AC0D0
:102200008D919C91119784179507F9F464177507C0
:1022100081F412968D919C911397309719F09383C6
:10222000828304C09093500580934F05FD01329640
:102230004FC0CA01861B970BFD01E80FF91F619380
:10224000719302978D939C9343C0FD01828193818A
:102250009C01D9011097A1F680914D0590914E05F2
:10226000892B41F48091AF049091B00490934E0576
:1022700080934D054091B1045091B2044115510530
:1022800041F44DB75EB78091AD049091AE04481B08
:10229000590B20914D0530914E0524173507B0F4A8
:1022A000CA01821B930B8617970780F0AB014E5F24
:1022B0005F4F8417950750F0420F531F50934E0500
:1022C00040934D05F9016193719302C0E0E0F0E0A5
:1022D000CF01DF91CF910895CF93DF93009709F459
:1022E00050C0EC0122971B821A82A0914F05B09139
:1022F0005005109709F140E050E0AC17BD0708F118
:10230000BB83AA83FE0121913191E20FF31FAE1727
:10231000BF0779F48D919C911197280F391F2E5F7B
:102320003F4F3983288312968D919C9113979B83FD
:102330008A834115510571F4D0935005C0934F0520
:1023400020C012968D919C911397AD01009711F0CA
:10235000DC01D3CFFA01D383C28321913191E20F03
:10236000F31FCE17DF0769F488819981280F391F81
:102370002E5F3F4FFA01318320838A819B819383B3
:102380008283DF91CF910895A0E0B0E0EAECF1E123
:102390000C949810FE0135966191719180915305CE
:1023A00090915405AF010E940E122096E2E00C9429
:1023B000B4100F931F93CF93DF938C01E0915305DB
:1023C000F0915405838181FF21C0C0E0D0E00DC0B1
:1023D000E0915305F091540520853185BF01F90145
:1023E0000995892B11F0CFEFDFEFF80181918F0173
:1023F000882371F7E0915305F091540520853185CC
:102400008AE0BF01F9010995892B11F0CFEFDFEFC9
:10241000CE01DF91CF911F910F910895ABE0B0E015
:10242000E4E1F2E10C9488103C012B015A01FC011B
:1024300017821682838181FD03C06FEF7FEFC6C1D3
:102440009AE0892E1E010894211C311CF30123817E
:10245000F20123FD859123FF81912F01882309F447
:10246000B2C1853239F423FD859123FF81912F017B
:10247000853229F490E0B3010E940114E7CF982F30
:10248000FF24EE249924FFE1FF15D0F09B3269F080
:102490009C3228F4903259F0933291F40EC09D3260
:1024A00049F0903369F441E024C052E0F52A84E019
:1024B000F82A28C098E0F92A25C0E0E1FE2A22C0C7
:1024C000F7FC29C0892F80538A3070F4F6FE05C0CE
:1024D000989C902C1124980E15C0E89CE02C112497
:1024E000E80EF0E2FF2A0EC09E3229F4F6FC6BC122
:1024F00040E4F42A07C09C3619F450E8F52A02C0DB
:10250000983649F4F20123FD959123FF91912F0113
:10251000992309F0B8CF892F8554833018F0805261
:10252000833038F444E050E0A40EB51E5FE35983D5
:102530000FC0933631F0933779F0933509F056C0D8
:1025400020C0F5018081898342E050E0A40EB51ED1
:10255000610101E010E012C0F501C080D180F6FCFD
:1025600003C06FEF7FEF02C0692D70E042E050E0E2
:10257000A40EB51EC6010E94F6138C015FE7F5227A
:1025800014C0F501C080D180F6FC03C06FEF7FEF6F
:1025900002C0692D70E042E050E0A40EB51EC601F5
:1025A0000E94EB138C0150E8F52AF3FE07C01AC015
:1025B00080E290E0B3010E940114EA948E2D90E035
:1025C00008171907A8F30EC0F601F7FC8591F7FE6E
:1025D00081916F0190E0B3010E940114E110EA942F
:1025E000015010400115110579F7EAC0943611F039
:1025F000993669F5F7FE08C0F501208131814281E5
:10260000538184E090E00AC0F501808191819C01B2
:10261000442737FD4095542F82E090E0A80EB91E64
:102620009FE6F92257FF09C05095409530952195B6
:102630003F4F4F4F5F4FE0E8FE2ACA01B901A101A9
:102640002AE030E00E942D14D82ED21840C09537D1
:1026500029F41F2D1F7E2AE030E01DC01F2D197F99
:102660009F3661F0903720F4983509F0ACC00FC068
:10267000903739F0983709F0A6C004C028E030E060
:102680000AC0106114FD146020E130E004C014FDA4
:10269000166020E132E017FF08C0F501608171810A
:1026A0008281938144E050E008C0F50180819181EE
:1026B000BC0180E090E042E050E0A40EB51EA10114
:1026C0000E942D14D82ED2188FE7F82EF122F6FE94
:1026D0000BC05EEFF522D91438F4F4FE07C0F2FC0B
:1026E00005C08FEEF82202C01D2D01C0192DF4FE89
:1026F0000DC0FE01ED0DF11D8081803319F499EEBE
:10270000F92208C01F5FF2FE05C003C08F2D867836
:1027100009F01F5F0F2DF3FC14C0F0FE0FC01E1553
:1027200010F09D2C0BC09D2C9E0C911A1E2D06C0E6
:1027300080E290E0B3010E9401141F5F1E15C0F3F8
:1027400004C01E1510F4E11A01C0EE2404FF0FC0EE
:1027500080E390E0B3010E94011402FF1DC001FD5F
:1027600003C088E790E00EC088E590E00BC0802FA2
:10277000867891F001FF02C08BE201C080E2F7FC95
:102780008DE290E0B3010E94011406C080E390E066
:10279000B3010E9401149A94D914C0F3DA94F101A0
:1027A000ED0DF11D808190E0B3010E940114DD2048
:1027B000A9F706C080E290E0B3010E940114EA94F8
:1027C000EE20C1F743CEF30166817781CB012B96D2
:1027D000E2E10C94A410FC010590615070400110DE
:1027E000D8F7809590958E0F9F1F0895FC0161503A
:1027F000704001900110D8F7809590958E0F9F1F23
:1028000008950F931F93CF93DF938C01EB018B817E
:1028100081FF1BC082FF0DC02E813F818C819D8175
:102820002817390764F4E881F9810193F983E88373
:1028300006C0E885F985802F0995892B31F48E81B2
:102840009F8101969F838E8302C00FEF1FEFC80107
:10285000DF91CF911F910F910895FA01AA27283097
:1028600051F1203181F1E8946F936E7F6E5F7F4F5D
:102870008F4F9F4FAF4FB1E03ED0B4E03CD0670FD9
:10288000781F891F9A1FA11D680F791F8A1F911D2C
:10289000A11D6A0F711D811D911DA11D20D009F47C
:1028A00068943F912AE0269F11243019305D3193BE
:1028B000DEF6CF010895462F4770405D4193B3E0A7
:1028C0000FD0C9F7F6CF462F4F70405D4A3318F04E
:1028D000495D31FD4052419302D0A9F7EACFB4E0FF
:1028E000A6959795879577956795BA95C9F70097B7
:1028F0006105710508959B01AC010A2E0694579558
:10290000479537952795BA95C9F7620F731F841FAE
:0A291000951FA01D0895F894FFCF55
:10291A000A7E7E7E7E7E7E7E7E7E7E7E7E7E7E7E41
:10292A007E7E7E7E7E7E7E7E7E7E7E7E7E7E7E7EBD
:10293A007E7E7E7E7E7E7E7E7E7E7E7E7E7E7E7EAD
:10294A007E7E7E7E7E000A55415254302064656246
:10295A00756720696E697420636F6D706C65746544
:10296A00000A41444320696E697420636F6D706C7C
:10297A00657465000A48756D6964697479207365C0
:10298A006E736F7220656E61626C65642E000A5008
:10299A00686F746F73796E746865736973204173B5
:1029AA007369737420456E61626C6564000A506FC6
:1029BA0077657220736176696E6720636F6D706CDC
:1029CA006574653A0A747477692064697361626C24
:1029DA006564000A53504920736C61766520656E00
:1029EA0061626C6564000A496E74302C3220656E2F
:1029FA0061626C6564000A4144435F554152545F09
:102A0A0074657374696E6720696E636C7564656456
:102A1A003A207479706520616E792063686172204A
:102A2A00746F2061637469766520616C6C206368D9
:102A3A00616E6E656C73204144432E000A52474210
:102A4A0020636F6E74726F6C20656E61626C656470
:102A5A00000A696E20494E543020696E746572729C
:102A6A007570740025642C2025642C2025640A00C6
:102A7A000A0A736574206C6F77000A0A73657420FA
:102A8A0068696768000A42617474657279204C65E6
:102A9A0076656C093A200925642525000A54656D76
:102AAA007065726174757265093A20092564202A75
:102ABA004331000A4C6967687420496E74656E7305
:102ACA00697479093A200925642525000A48756D33
:102ADA0069646974792050657263656E74616765AB
:102AEA00093A200925752525000A5761746572205F
:102AFA004C6576656C093A200925642525000A4348
:102B0A0068616E6E656C20256420093A0925346473
:102B1A00000A52656365697665643A202563000A8E
:102B2A0053656E736F72446174612025643A20257F
:102B3A0064000A5761746572696E6720506C616E31
:102B4A00742E2E2E00746F67676C696E67206D7520
:102B5A0074653A2025640A0053504452203A2025CD
:102B6A00780A00436F6D6D616E642069733A20259F
:102B7A00780A00436F6D6D616E64496E666F2069F5
:102B8A00733A2025780A00466565646261636B20A2
:102B9A0069733A2025780A005200000001000000FB
:102BAA000000007100000000000002000000005D4B
:102BBA000000000000000000000000000000010208
:102BCA0002030303030404040404040404050505BE
:102BDA000505050505050505050505050506060698
:102BEA00060606060606060606060606060606067B
:102BFA000606060606060606060606060607070768
:102C0A00070707070707070707070707070707074A
:102C1A00070707070707070707070707070707073A
:102C2A00070707070707070707070707070707072A
:102C3A000707070707070707070707070708080817
:102C4A0008080808080808080808080808080808FA
:102C5A0008080808080808080808080808080808EA
:102C6A0008080808080808080808080808080808DA
:102C7A0008080808080808080808080808080808CA
:102C8A0008080808080808080808080808080808BA
:102C9A0008080808080808080808080808080808AA
:102CAA00080808080808080808080808080808089A
:102CBA00080808080808080808080808082000572B
:042CCA000500000001
:00000001FF
